:020000020000FC
:020000003FC0FF
:0200340067C0A3
:1000800060E008E00EBF0FEF0DBF01E007B903E02D
:1000900001B9109811980FEF04B9B1E0A0E014E095
:1000A0001D9313E01D9312E01D9311E01C9301D0EA
:1000B000FECF24E03EEFB1E0A0E01FEF15B9119AAA
:1000C00011981D9110D015B9109A109835B9119A40
:1000D0001198789452E050936F001AD00894331F0F
:1000E0002A9559F70895F0E0E4EFE10F10E0F11FD1
:1000F00014910895C0F9A4B0999282F880908883F1
:10010000C6A1868E61E041E058B1542758B91895D0
:1001100057E0509389005FEC5093880050E0509373
:1001200080005AE050938100613009F0FDCF50E02B
:08013000509381006627089539
:00000001FF
