:020000020000FC
:020000003FC0FF
:1000800008E00EBF0FEF0DBF0FE004B90FEF01B98D
:100090000FEF07B94098419842980AEF8CD00AEFC9
:1000A0008AD0409810E374D00AE285D0409810E3DB
:1000B0006FD002E080D0409812E358D028E231E0BF
:1000C0004CE056E047D01FD0FECF14E04EEF45B9CC
:1000D00033B133B1307F303F31F4440F43951A953B
:1000E000B1F788940FC014501195329544E03795BC
:1000F00040F413951395139513954A95C1F7889479
:1001000001C00894089522E3E0DFE8F72A95E1F7BB
:1001100012B91F9301E04FD0409818E827D01F91E3
:1001200043D0409A23D022E3D0DFE8F32A95E1F7C9
:100130001FEF12B901E03FD0409818E817D01FE038
:1001400033D0409A13D00AE036D01FE02DD0409A29
:100150000DD008954098122F09D0132F07D004E135
:100160002AD0142F03D0152F01D0089501E023D0F9
:1001700008B101700F931F93107F102B09D001E07D
:100180001AD01F910F911295107F102B01D0089556
:1001900018B9429A4298089530313233343536379F
:1001A0003839414243444546F1E0E8E9E10F002790
:1001B000F01F14910895F02E08ECE02E0000EA9450
:0801C000E9F7FA94D1F7089564
:00000001FF
