:020000020000FC
:020000003FC0FF
:1000800008E00EBF0FEF0DBF07E007B94098419899
:1000900042980FEF04B90AEF50D00AEF4ED04098C3
:1000A00010E347D00AE249D0409810E342D002E082
:1000B00044D0409810E33DD028E331E04CE056E0D6
:1000C00024D001E03AD0409811E033D004E135D09B
:1000D000409813E82ED0F4E0E0E015911D3029F0AF
:1000E00001E02BD0409A25D0F8CF01E026D04098EF
:1000F00013EC1FD01591103029F001E01ED0409A6A
:1001000018D0F8CF01E019D0FFCF01E016D0409809
:10011000122F0FD001E011D0132F0BD004E10DD01E
:100120004098142F06D001E008D04098152F01D038
:10013000089515B9429A42980895F02E08ECE02EE1
:0C014000EA940000E9F7FA94D1F7089562
:10040000544E2056584C2D4156520D4E484F4D3AA1
:040410002030330065
:00000001FF
