:020000020000FC
:020000003FC0FF
:020050006FC07F
:1000800008E00EBF0FEF0DBF882799270FEF04B9C7
:100090000FEF07B9409841980FEF01B900E002B99E
:1000A0000AEF53D00AEF51D0109810E363D00AE260
:1000B0004CD0109810E35ED002E047D0109810E3C7
:1000C00059D002E042D0109810E254D028E231E03A
:1000D0004CE056E043D000E3B2E0A0E00C9378940B
:1000E0001AD08F939F9370D097D09F918F91109833
:1000F00011E044D004E129D01CE0109801E025D0A3
:100100003DD010E84DD0B2E0A0E01C91109A36D05E
:1001100001E01BD0E6CF00E90093C10006E00093A8
:10012000C20000E00093C50003E30093C4000895FB
:100130006091C600B2E0A0E06C930196883E21F485
:10014000933011F4882799271895F02E08ECE02EAB
:10015000EA940000E9F7FA94D1F708951098122F65
:100160000DD0132F0BD004E1F0DF142F07D0152F83
:1001700005D0089512B9129A1298089501E0E5DFAA
:1001800002B101700F931F93107F102BF3DF01E07A
:10019000DCDF1F910F911295107F102BEBDF08957C
:1001A00001E0D3DF1098EADF0895F1E0E8EBE10F1A
:1001B00010E0F11F14910895C0F9A4B0999282F84B
:1001C00080908883C6A1868E442755270AD0402F69
:1001D00008D00295402B05D0502F03D00295502B0C
:1001E0000895CC27DD270A9710F02196FCCF0A96B8
:1001F000082FCE010895B1E0A0E0142F1F701D93C9
:10020000142F12951F701D93152F1F701D93152FFE
:1002100012951F701D930895EEDF24E03EEFB1E0CC
:10022000A0E01FEF15B9419A41981D91BEDF15B9A5
:10023000409A409835B9419A419804E186DF089484
:08024000331F2A9571F70895A0
:00000001FF
