:020000020000FC
:020000003FC0FF
:02003400D6C034
:1000800008E00EBF0FEF0DBF789402E000936F0001
:100090000FEF04B900E005B90AEF92D00AEF90D053
:1000A000289810E35FD00AE28BD0289810E35AD04A
:1000B00002E086D0289810E355D002E081D028983D
:1000C00010E250D028E231E04CE056E03FD000E4AE
:1000D00000937C0006EC00937A0020917A0024FFC4
:1000E000FCCF20937A00809178009091790050D0D5
:1000F00057D00DEC801B00E0900B58D00063F2E06D
:10010000E3E000832EE2F2E0E2E020834FD00063E0
:10011000F2E0E1E000838063F2E0E0E0808364E00D
:1001200001E04ED0289811E021D004E149D0289870
:1001300010E852D0F2E0E0E01191289A01E040D0BE
:1001400015D06A95C9F752D051D0C1CF2898122F37
:100150000DD0132F0BD004E133D0142F07D0152F5F
:1001600005D0089515B92A9A2A98089501E028D053
:1001700005B101700F931F93107F102BF3DF01E087
:100180001FD01F910F911295107F102BEBDF089558
:100190000AE0809F1001909F300C822D932D0895CE
:1001A00062E0969587956A95E1F70895CC27DD275B
:1001B0000A9710F02196FCCF0A96082FCE010895D9
:1001C0000093880000E0009380000DE00093810020
:1001D0007130F1F77727089501E0F2DF2898C6DF44
:1001E000089571E000E00093810018952FE10AEF77
:0C01F000E7DF2A95E1F70FE3E3DF089555
:00000001FF
