:020000020000FC
:020000003FC0FF
:1000800008E00EBF0FEF0DBF0FEF04B900E005B998
:100090000AEF64D00AEF62D0289810E344D00AE255
:1000A0005DD0289810E33FD002E058D0289810E3A4
:1000B0003AD002E053D0289810E235D028E231E05F
:1000C0004CE056E024D001E049D0289811E02FD030
:1000D00004E144D0289810E83CD0F6E0E0E0159127
:1000E0001D3029F001E03AD0289A21D0F8CF01E064
:1000F00035D0289810EC2DD01591103029F001E062
:100100002DD0289A14D0F8CF01E028D0FFCF28981E
:10011000122F0DD0132F0BD004E120D0142F07D0B5
:10012000152F05D0089515B92A9A2A98089501E047
:1001300015D005B101700F931F93107F102BF3DFC3
:1001400001E00CD01F910F911295107F102BEBDF67
:10015000089501E003D02898EADF0895F02E08EC16
:0E016000E02EEA940000E9F7FA94D1F7089532
:10060000544E2056584C2D4156520D4E484F4D3A9F
:040610002030330063
:00000001FF
