:020000020000FC
:020000003FC0FF
:1000800008E00EBF0FEF0DBF00E40AB903E004B9AA
:1000900000E001B90FE002B90CE70093B30005E0FE
:1000A0000093B40003E20093B0000CE00093B100B1
:1000B00036E010B11C7013FD08C012FD03C0289A71
:1000C00029980DC02898299A0AC003E20093B0002D
:1000D00008E00093B1005E9A28982998DDCF18D0E7
:1000E00020FFE7CF113049F41091B400130F1637F9
:1000F00008F016E71093B400DCCF1230D1F610915F
:10010000B400131B153008F415E01093B400D1CFE0
:100110002E7F02E310B11370133099F00A95D1F7D6
:100120001F9302E310B113701330D9F70A95D1F77A
:100130001F91123011F411E003C0113011F412E0DC
:04014000216008959D
:00000001FF
