:020000020000FC
:020000003FC0FF
:02003400DEC02C
:1000800008E00EBF0FEF0DBF789402E000936F0001
:100090000FEF04B900E005B90AEF9AD00AEF98D043
:1000A000289810E363D00AE293D0289810E35ED03A
:1000B00002E08ED0289810E359D002E089D0289829
:1000C00010E254D028E231E04CE056E043D064D056
:1000D00009EC00937C0006EE00937A0020917A00F0
:1000E00024FFF9CF20937A00409178005091790055
:1000F00006E600937A000FEF302F5BD0342F59D0F3
:10010000352F57D005E5302F54D001E061D0289825
:1001100011E030D004E15CD0289810E82BD0F1E059
:10012000ECEF15911D3029F001E052D0289A22D031
:10013000F8CF01E04DD0289814EC1CD01591103068
:1001400029F001E045D0289A15D0F8CF01E040D041
:1001500037D0C1CF2898122F0DD0132F0BD004E128
:1001600037D0142F07D0152F05D0089515B92A9A26
:100170002A98089501E02CD005B101700F931F93C8
:10018000107F102BF3DF01E023D01F910F91129508
:10019000107F102BEBDF089508E00093C10006E00C
:1001A0000093C20000E00093C50003E30093C40085
:1001B00008951091C00015FFFCCF3093C60008953C
:1001C0002FE10AEF05D02A95E1F70FE301D008955A
:1001D0000093880000E0009380000DE00093810010
:1001E0007130F1F77727089501E0F2DF2898C2DF38
:1001F000089571E000E00093810018954449454E50
:1002000020415020565231204C410D322E3556009F
:00000001FF
