:020000020000FC
:020000003FC0FF
:0200340052C0B8
:1000800008E00EBF0FEF0DBF03E001B91098119803
:100090000FEF04B900E005B9F0E0E3E88894EE1F43
:1000A000FF1F38E021E0002705B915910BD025B9D5
:1000B000789452E050936F0012D08894221F3A95A2
:1000C00091F7EACF09E0111F10F4119A01C01198BD
:1000D000109A10980A95B9F7089561E0189557E0BD
:1000E000509389005FEC5093880050E0509380005B
:1000F0005AE050938100613009F0FDCF50E05093F9
:0E010000810066270895FE92926CFE284482CC
:00000001FF
