:020000020000FC
:020000003FC0FF
:020004009CC29C
:02000800BDC277
:02000C00DEC252
:1000800008E00EBF0FEF0DBF5298539822985A9A6E
:100090005B9A2A9A78940AE200936900E89AE99AAE
:1000A000EA9A0FEF07B900E008B90AEF3CD20AEF6D
:1000B0003AD2409810E31FD10AE235D2409810E3BB
:1000C0001AD102E030D2409810E315D102E02BD2D1
:1000D000409810E210D128E231E04CE056E0FFD029
:1000E00025D134E430D13FE42ED13EE42CD130E2AE
:1000F0002AD137E428D139E426D131E424D130E2C1
:1001000022D13DE420D139E41ED134E51CD130E2C6
:100110001AD137E418D139E416D131E414D13AE3D5
:1001200012D130E210D1B2E0A0E604E013D1CF70DA
:10013000CD930A95D9F73DE006D134E404D13FE4EC
:1001400002D13EE400D130E2FED037E4FCD039E405
:10015000FAD031E4F8D030E2F6D03DE4F4D039E41E
:10016000F2D034E5F0D030E2EED03EE4ECD037E42B
:10017000EAD03FE4E8D03EE4E6D03AE3E4D030E22F
:10018000E2D0B2E0A4E604E0E5D0CF70CD930A95CA
:10019000D9F73DE0D8D034E4D6D03FE4D4D03EE423
:1001A000D2D030E2D0D037E4CED039E4CCD031E474
:1001B000CAD030E2C8D03DE4C6D039E4C4D034E57A
:1001C000C2D030E2C0D037E4BED031E4BCD03EE48F
:1001D000BAD030E2B8D033E4B6D038E4B4D039E4A1
:1001E000B2D03EE4B0D03AE3AED030E2ACD0B2E030
:1001F000A8E604E0AFD0CF70CD930A95D9F73DE0E3
:10020000A2D034E4A0D03FE49ED03EE49CD030E2C3
:100210009AD037E498D039E496D031E494D030E2E3
:1002200092D03DE490D039E48ED034E58CD030E2E9
:100230008AD03EE488D03FE486D03EE484D03AE3DE
:1002400082D030E280D0B2E0ACE604E083D0CF7060
:10025000CD930A95D9F73DE076D00BE400937C006E
:1002600006EA00937A0000E000937B0000917A0098
:10027000006400937A0020917A0024FFFCCF209341
:100280007A00E0917800F0917900EE0FFF1FF330D3
:1002900071F0F23019F0F13021F006C0E83568F065
:1002A00006C0E03980F009C0E83C98F00CC0BFD02F
:1002B00058D093D0E3D0EFD0D0CFB9D061D08DD08B
:1002C000DDD0E9D0CACFB3D06AD087D0D7D0E3D0C1
:1002D000C4CFADD073D081D0D1D0DDD0BECF4098C7
:1002E000122F0DD0132F0BD004E11DD1142F07D0E6
:1002F000152F05D0089518B9429A4298089501E043
:1003000012D108B101700F931F93107F102BF3DFF0
:1003100001E009D11F910F911295107F102BEBDF97
:10032000089501E000D14098EADF089508E10093C4
:10033000C10006E00093C20000E00093C50003E3A3
:100340000093C40008951091C00015FFFCCF3093B6
:10035000C60008951091C00017FFFCCFC091C600E1
:100360000895B2E0A0E622270D9114E6019F200D2A
:100370000D911AE0019F200D0D910D91200F089510
:10038000B2E0A4E622270D9114E6019F200D0D9105
:100390001AE0019F200D0D910D91200F0895B2E0FC
:1003A000A8E622270D9114E6019F200D0D911AE079
:1003B000019F200D0D910D91200F0895B2E0ACE644
:1003C00022270D9114E6019F200D0D911AE0019F47
:1003D000200D0D910D91200F08952F93B2E0A0E014
:1003E00000E00D9307E40D930BE40D930FE20D93E2
:1003F00004E40D9303E50D9305E50D9300E20D93E1
:100400000CD000630D930EE20D9307D000630D93A3
:1004100004D000630D932F910895CC27DAE02A5081
:1004200010F0C395FCCF2D0F022F2C2F0895EF93C2
:10043000FF93B2E0ACE00DE00D9307E40D930BE405
:100440000D9300E20D9310D000630D930DD0006367
:100450000D930EE20D9308D000630D9305D0006359
:100460000D93FF91EF910895CC27DD273A9710F077
:100470002196FCCF3A960E2FFE01089522243324B4
:10048000442450E02E0E3F1E451E2A95D1F7722DB2
:10049000832D942D0895B2E0A0E400E00D932AD0BE
:1004A00000630D9327D000630D9324D000630D9358
:1004B0000EE20D931FD000630D931CD000630D93CB
:1004C00019D000630D930DE00D930EE40D9305E438
:1004D0000D9309E40D9304E50D9300E20D9308E4F8
:1004E0000D930EE40D9301E40D9308E40D9304E5E0
:1004F0000D930895442755276627439509F453958E
:1005000009F463957A50C8F78150B8F79150A8F76D
:100510001AE0FF24710F415050406040072F742FA4
:10052000852F962F08950093880000E000938000A7
:100530000DE000938100B19BFECFB19A089501E0D8
:10054000F2DF409811E0DBDE04E1EDDF10E8E9DEE8
:10055000B2E0A5E11E911D3029F001E0E4DF409AF0
:10056000CEDEF8CF01E0DFDF409810ECDADE1E913E
:10057000103029F001E0D7DF409AC1DEF8CF01E06A
:10058000D2DF189501E0CFDF409811E0B8DE04E13A
:10059000CADF13E8C6DEB2E0A3E51E911D3029F0E4
:1005A00001E0C1DF409AABDEF8CF01E0BCDF40984C
:1005B00014ECB7DE1E91103029F001E0B4DF409A50
:1005C0009EDEF8CF01E0AFDF189534E5BCDE38E4FD
:1005D000BADE31E4B8DE3EE4B6DE38E4B4DE30E262
:1005E000B2DE34E5B0DE39E4AEDE35E4ACDE3EE466
:1005F000AADE3AE3A8DE30E2A6DE07E0B2E0A8E435
:100600003E91A1DE0A95E1F730E29DDE35E59BDE05
:0E06100033E599DE34E497DE3DE095DE189583
:00000001FF
