:020000020000FC
:020000003FC0FF
:1000800008E00EBF0FEF0DBF0FEF01B900E002B99E
:100090000AEFC3D00AEFC1D0109810E3A3D00AE250
:1000A000BCD0109810E39ED002E0B7D0109810E3B7
:1000B00099D002E0B2D0109810E294D028E231E05A
:1000C0004CE056E083D0B2D001E0A7D0109811E008
:1000D0008DD004E1A2D010E89BD0F4E0E0E06DD038
:1000E00010EC96D0F4E0E6E068D0AAD01EEDB0D0D7
:1000F00017E0AED010E4ACD0C7D0B2E0A0E047E04B
:100100009FD01EEDA5D010E0A3D09AD01FEDA0D0B7
:10011000A9D01D934A95E1F7AFD0B6D066E3B2E01F
:10012000A0E06C9360E1B2E0A1E06C9360E5B1E027
:10013000AFEF6C9360E1B2E0A4E06C9364E0B2E0F6
:10014000A5E06C9363E2B2E0A6E06C931CE010982B
:1001500001E063D04BD043E017E85AD0B2E0A2E010
:100160001E91413009F41F7718D04A9531F01AE3F7
:10017000109A01E052D03AD0F3CFB2E0A4E043E0CD
:1001800017EC46D01D9109D04A9531F01FE2109A24
:1001900001E043D02BD0F6CFFFCF1F9312951F70F5
:1001A0001063109A01E039D021D01F911F701063A5
:1001B000109A01E032D01AD008951591103029F02C
:1001C00001E02BD0109A12D0F8CF08951098122F7A
:1001D0000DD0132F0BD004E120D0142F07D0152FF2
:1001E00005D0089512B9129A1298089501E015D019
:1001F00002B101700F931F93107F102BF3DF01E00A
:100200000CD01F910F911295107F102BEBDF0895EA
:1002100001E003D01098EADF0895F02E08ECE02EFC
:10022000EA940000E9F7FA94D1F70895F02E1093BC
:10023000B80011E01093B90014E01093BC000895C9
:1002400014EA1093BC001091BC0017FFFCCF089576
:100250001093BB0014E81093BC001091BC0017FF72
:10026000FCCF089514EC1093BC001091BC0017FF54
:10027000FCCF1091BB00089514E81093BC001091BE
:10028000BC0017FFFCCF089514E91093BC0008953B
:0C04000054696D653A00446174653A006F
:00000001FF
