:020000020000FC
:020000003FC0FF
:1000800008E00EBF0FEF0DBF03E007B9409841989D
:100090000FEF04B9B1E0A0E013E01D9312E01D934F
:1000A00011E01D9310E01C9301D0FECF24E03EEF41
:1000B000B1E0A0E01FEF15B9419A41981D910CD015
:1000C00015B9409A409835B9419A419814D008948E
:1000D000331F2A9579F70895F0E0E6EEE10F10E07E
:1000E000F11F14910895C0F9A4B0999282F88090FC
:1000F0008883C6A1868E40E044BD40E045BD43E60E
:1001000046BD45E045BD45B340FFFDCF45BB40E0A2
:0401100045BD08954C
:00000001FF
