:020000020000FC
:020000003FC0FF
:02000400D3C067
:1000800008E00EBF0FEF0DBF02E000936900E89A91
:1000900078940FEF01B900E002B90AEFC9D00AEF76
:1000A000C7D0109810E3A9D00AE2C2D0109810E38C
:1000B000A4D002E0BDD0109810E39FD002E0B8D0E9
:1000C000109810E29AD028E231E04CE056E089D056
:1000D000B8D070E001E0ACD0109811E092D004E10B
:1000E000A7D010E8A0D0F4E0E0E072D010EC9BD0F4
:1000F000F4E0E6E06DD0AFD01EEDB5D017E0B3D0A0
:1001000010E4B1D0CCD0B2E0A0E047E0A4D01EED26
:10011000AAD010E0A8D09FD01FEDA5D0AED01D93DF
:100120004A95E1F7B4D0BBD066E3B2E0A0E06C93AF
:1001300060E1B2E0A1E06C9360E5B1E0AFEF6C93F9
:1001400067E1B2E0A4E06C9364E0B2E0A5E06C93F8
:1001500063E2B2E0A6E06C931CE0109801E068D086
:1001600050D043E017E85FD0B2E0A2E01E914130EA
:1001700009F41F771DD04A9531F01AE3109A01E077
:1001800057D03FD0F3CFB2E0A4E043E017EC4BD020
:100190001D910ED04A9531F01FE2109A01E048D02F
:1001A00030D0F6CF7130F1F77727ADCF71E01895E9
:1001B0001F9312951F701063109A01E039D021D05F
:1001C0001F911F701063109A01E032D01AD0089569
:1001D0001591103029F001E02BD0109A12D0F8CFF1
:1001E00008951098122F0DD0132F0BD004E120D0BA
:1001F000142F07D0152F05D0089512B9129A12980E
:10020000089501E015D002B101700F931F93107F84
:10021000102BF3DF01E00CD01F910F911295107F8E
:10022000102BEBDF089501E003D01098EADF08956A
:10023000F02E08ECE02EEA940000E9F7FA94D1F7EA
:100240000895F02E1093B80011E01093B90014E057
:100250001093BC00089514EA1093BC001091BC00E8
:1002600017FFFCCF08951093BB0014E81093BC0057
:100270001091BC0017FFFCCF089514EC1093BC0044
:100280001091BC0017FFFCCF1091BB00089514E83B
:100290001093BC001091BC0017FFFCCF089514E927
:0602A0001093BC0008955C
:0C04000054696D653A00446174653A006F
:00000001FF
