:020000020000FC
:020000003FC0FF
:1000800008E00EBF0FEF0DBF00E007B9409A0FEF79
:1000900001B90FEF04B900E005B90AEF6BD00AEF20
:1000A00069D0289810E34BD00AE264D0289810E376
:1000B00046D002E05FD0289810E341D002E05AD049
:1000C000289810E23CD028E231E04CE056E02BD0FA
:1000D00040E001E04FD0289811E035D004E14AD04B
:1000E000289812E842D0F6E0E0E015911D3029F0A2
:1000F00001E040D0289A27D0F8CF01E03BD02898E3
:1001000017EC33D0142F106301E034D0289A1BD0A1
:1001100042B901E02FD03099FCCF08EC2BD03099B8
:10012000F8CF4395D6CF2898122F0DD0132F0BD090
:1001300004E120D0142F07D0152F05D0089515B94C
:100140002A9A2A98089501E015D005B101700F93FD
:100150001F93107F102BF3DF01E00CD01F910F9144
:100160001295107F102BEBDF089501E003D0289843
:10017000EADF0895F02E08ECE02EEA940000E9F79B
:06018000FA94D1F7089586
:0C060000534F204C414E204E48414E0DFF
:00000001FF
