:020000020000FC
:020000003FC0FF
:1000800062E07AE080E0992730E04DE708E00EBFBB
:1000900008E00DBF249A02E004BD01D0FECF032F7B
:1000A00007BD03E005BD2C9A15B311FFFCCF15BBAE
:1000B000042F07BD2C9815B311FFFCCF15BB7A9503
:1000C00079F47AE08395843629F090FD07C0339562
:1000D0004A9506C08827A1E09A27F7CF3A9543951D
:1000E00037BDE1CF0895F1E0ECE004E107BD03E0A6
:1000F00005BD15B311FFFDCF15BB059107BD6A9571
:0E010000C1F762E0F1E0ECE0F4CF08955C1E80
:00000001FF
