:020000020000FC
:020000003FC0FF
:0200340012C1F7
:1000800008E00EBF0FEF0DBF789402E000936F0001
:100090000FEF04B900E005B90AEFCED00AEFCCD0DB
:1000A000289810E381D00AE2C7D0289810E37CD0CA
:1000B00002E0C2D0289810E377D002E0BDD02898A3
:1000C00010E272D028E231E04CE056E061D082D0FC
:1000D00000E400937C0006EC00937A0020917A0003
:1000E00024FFFCCF20937A00409178005091790052
:1000F0000FEF302F7CD0342F7AD0352F78D005E514
:10010000302F75D07BD082D04A30E9F070F001E01A
:100110000063F2E0E0E000830EE2F2E0E1E0008361
:10012000F2E0E2E0406340831DC076D0F2E0E0E020
:10013000706370830EE2F2E0E1E00083F2E0E2E05F
:10014000406340830FC001E00063F2E0E0E0008321
:100150000EE2F2E0E1E0008300E00063F2E0E2E0C2
:10016000008300C063E001E067D0289811E020D050
:1001700004E162D0289810E86BD0F2E0E0E0119141
:10018000289A01E059D014D06A95C9F74DD0A0CF74
:100190002898122F0DD0132F0BD004E14DD0142F1F
:1001A00007D0152F05D0089515B92A9A2A980895D1
:1001B00001E042D005B101700F931F93107F102B07
:1001C000F3DF01E039D01F910F911295107F102BB2
:1001D000EBDF089508E00093C10006E00093C20041
:1001E00000E00093C50003E30093C400089510915C
:1001F000C00015FFFCCF3093C600089502E3409F76
:100200001001509F300C422D532D08956AE05695F1
:1002100047956A95E1F7089577274A5010F073954E
:10022000FCCF0AE0400F08952FE10AEF05D02A9590
:10023000E1F70FE301D008950093880000E00093F8
:1002400080000DE0009381007130F1F77727089569
:1002500001E0F2DF2898ACDF089571E000E0009340
:04026000810018956C
:00000001FF
