:020000020000FC
:020000003FC0FF
:1000800008E00EBF0FEF0DBF03E007B9409841989D
:1000900000E001B90FEF04B940E050E079E010B1A1
:1000A0001095179FC00102D029D0F8CF44275527BB
:1000B0000AD0402F08D00295402B05D0502F03D0F6
:1000C0000295502B0895CC27DD270A9710F0219632
:1000D000FCCF0A96082FCE010895B1E0A0E0142FBE
:1000E0001F701D93142F12951F701D93152F1F70D5
:1000F0001D93152F12951F701D930895EEDF24E0B8
:100100003EEFB1E0A0E01FEF15B9419A41981D9173
:100110000CD015B9409A409835B9419A419814D0FD
:100120000894331F2A9579F70895F1E0E8E3E10F89
:1001300010E0F11F14910895C0F9A4B0999282F8CB
:1001400080908883C6A1868E60E064BD60E065BD56
:1001500063E666BD65E065BD65B360FFFDCF65BB69
:0601600060E065BD08959A
:00000001FF
